:040000000128F02FB4
:100F4E00C0345D3421008E16013022009D00053024
:100F5E002500930020008E0135309800111140308D
:100F6E00210095008B160B11323020009500C030F9
:100F7E008B0004302100910020008C0121008C1286
:100F8E0020008C01F31BD82F7308031DD92F720874
:100F9E00031DD92FC03070025D30713B031CD82F5A
:100FAE00D92FDD2FFF3020008C00DF2F20008C0189
:100FBE000B1DE22FE32FC92F0B113230950000309D
:100FCE00F3000030F2000030F1000030F000C92FC5
:100FDE0001288731A7278731F6008731A827873167
:100FEE00F700F001F101F201F301F401F501200027
:020FFE00A92F19
:020000040001F9
:04000E00E439FF1FB3
:00000001FF
